{
  "contractName": "Soft2Point",
  "abi": [
    {
      "inputs": [],
      "payable": false,
      "stateMutability": "nonpayable",
      "type": "constructor"
    },
    {
      "anonymous": false,
      "inputs": [
        {
          "indexed": true,
          "internalType": "address",
          "name": "owner",
          "type": "address"
        },
        {
          "indexed": true,
          "internalType": "address",
          "name": "spender",
          "type": "address"
        },
        {
          "indexed": false,
          "internalType": "uint256",
          "name": "value",
          "type": "uint256"
        }
      ],
      "name": "Approval",
      "type": "event"
    },
    {
      "anonymous": false,
      "inputs": [
        {
          "indexed": true,
          "internalType": "address",
          "name": "from",
          "type": "address"
        },
        {
          "indexed": true,
          "internalType": "address",
          "name": "to",
          "type": "address"
        },
        {
          "indexed": true,
          "internalType": "address",
          "name": "issuer",
          "type": "address"
        },
        {
          "indexed": false,
          "internalType": "uint256",
          "name": "value",
          "type": "uint256"
        }
      ],
      "name": "Fee",
      "type": "event"
    },
    {
      "anonymous": false,
      "inputs": [
        {
          "indexed": true,
          "internalType": "address",
          "name": "previousOwner",
          "type": "address"
        },
        {
          "indexed": true,
          "internalType": "address",
          "name": "newOwner",
          "type": "address"
        }
      ],
      "name": "OwnershipTransferred",
      "type": "event"
    },
    {
      "anonymous": false,
      "inputs": [
        {
          "indexed": true,
          "internalType": "address",
          "name": "from",
          "type": "address"
        },
        {
          "indexed": true,
          "internalType": "address",
          "name": "to",
          "type": "address"
        },
        {
          "indexed": false,
          "internalType": "uint256",
          "name": "value",
          "type": "uint256"
        }
      ],
      "name": "Transfer",
      "type": "event"
    },
    {
      "constant": true,
      "inputs": [
        {
          "internalType": "address",
          "name": "",
          "type": "address"
        }
      ],
      "name": "Companies",
      "outputs": [
        {
          "internalType": "string",
          "name": "ID",
          "type": "string"
        },
        {
          "internalType": "bool",
          "name": "IsRegister",
          "type": "bool"
        }
      ],
      "payable": false,
      "stateMutability": "view",
      "type": "function"
    },
    {
      "constant": true,
      "inputs": [
        {
          "internalType": "address",
          "name": "",
          "type": "address"
        }
      ],
      "name": "Members",
      "outputs": [
        {
          "internalType": "string",
          "name": "ID",
          "type": "string"
        },
        {
          "internalType": "string",
          "name": "email",
          "type": "string"
        },
        {
          "internalType": "bool",
          "name": "IsRegister",
          "type": "bool"
        }
      ],
      "payable": false,
      "stateMutability": "view",
      "type": "function"
    },
    {
      "constant": true,
      "inputs": [
        {
          "internalType": "address",
          "name": "owner",
          "type": "address"
        },
        {
          "internalType": "address",
          "name": "spender",
          "type": "address"
        }
      ],
      "name": "allowance",
      "outputs": [
        {
          "internalType": "uint256",
          "name": "",
          "type": "uint256"
        }
      ],
      "payable": false,
      "stateMutability": "view",
      "type": "function"
    },
    {
      "constant": false,
      "inputs": [
        {
          "internalType": "address",
          "name": "spender",
          "type": "address"
        },
        {
          "internalType": "uint256",
          "name": "value",
          "type": "uint256"
        }
      ],
      "name": "approve",
      "outputs": [
        {
          "internalType": "bool",
          "name": "",
          "type": "bool"
        }
      ],
      "payable": false,
      "stateMutability": "nonpayable",
      "type": "function"
    },
    {
      "constant": true,
      "inputs": [
        {
          "internalType": "address",
          "name": "owner",
          "type": "address"
        }
      ],
      "name": "balanceOf",
      "outputs": [
        {
          "internalType": "uint256",
          "name": "",
          "type": "uint256"
        }
      ],
      "payable": false,
      "stateMutability": "view",
      "type": "function"
    },
    {
      "constant": true,
      "inputs": [],
      "name": "decimals",
      "outputs": [
        {
          "internalType": "uint8",
          "name": "",
          "type": "uint8"
        }
      ],
      "payable": false,
      "stateMutability": "view",
      "type": "function"
    },
    {
      "constant": true,
      "inputs": [
        {
          "internalType": "uint256",
          "name": "value",
          "type": "uint256"
        }
      ],
      "name": "estimateFee",
      "outputs": [
        {
          "internalType": "uint256",
          "name": "",
          "type": "uint256"
        }
      ],
      "payable": false,
      "stateMutability": "view",
      "type": "function"
    },
    {
      "constant": true,
      "inputs": [],
      "name": "issuer",
      "outputs": [
        {
          "internalType": "address",
          "name": "",
          "type": "address"
        }
      ],
      "payable": false,
      "stateMutability": "view",
      "type": "function"
    },
    {
      "constant": true,
      "inputs": [],
      "name": "minFee",
      "outputs": [
        {
          "internalType": "uint256",
          "name": "",
          "type": "uint256"
        }
      ],
      "payable": false,
      "stateMutability": "view",
      "type": "function"
    },
    {
      "constant": true,
      "inputs": [],
      "name": "name",
      "outputs": [
        {
          "internalType": "string",
          "name": "",
          "type": "string"
        }
      ],
      "payable": false,
      "stateMutability": "view",
      "type": "function"
    },
    {
      "constant": true,
      "inputs": [],
      "name": "owner",
      "outputs": [
        {
          "internalType": "address",
          "name": "",
          "type": "address"
        }
      ],
      "payable": false,
      "stateMutability": "view",
      "type": "function"
    },
    {
      "constant": false,
      "inputs": [
        {
          "internalType": "uint256",
          "name": "value",
          "type": "uint256"
        }
      ],
      "name": "setMinFee",
      "outputs": [],
      "payable": false,
      "stateMutability": "nonpayable",
      "type": "function"
    },
    {
      "constant": true,
      "inputs": [],
      "name": "symbol",
      "outputs": [
        {
          "internalType": "string",
          "name": "",
          "type": "string"
        }
      ],
      "payable": false,
      "stateMutability": "view",
      "type": "function"
    },
    {
      "constant": true,
      "inputs": [],
      "name": "totalSupply",
      "outputs": [
        {
          "internalType": "uint256",
          "name": "",
          "type": "uint256"
        }
      ],
      "payable": false,
      "stateMutability": "view",
      "type": "function"
    },
    {
      "constant": true,
      "inputs": [
        {
          "internalType": "uint256",
          "name": "",
          "type": "uint256"
        }
      ],
      "name": "transInfo",
      "outputs": [
        {
          "internalType": "uint256",
          "name": "points",
          "type": "uint256"
        },
        {
          "internalType": "enum Soft2Point.TransType",
          "name": "transType",
          "type": "uint8"
        },
        {
          "internalType": "address",
          "name": "sender",
          "type": "address"
        },
        {
          "internalType": "address",
          "name": "receiver",
          "type": "address"
        }
      ],
      "payable": false,
      "stateMutability": "view",
      "type": "function"
    },
    {
      "constant": false,
      "inputs": [
        {
          "internalType": "address",
          "name": "to",
          "type": "address"
        },
        {
          "internalType": "uint256",
          "name": "value",
          "type": "uint256"
        }
      ],
      "name": "transfer",
      "outputs": [
        {
          "internalType": "bool",
          "name": "",
          "type": "bool"
        }
      ],
      "payable": false,
      "stateMutability": "nonpayable",
      "type": "function"
    },
    {
      "constant": false,
      "inputs": [
        {
          "internalType": "address",
          "name": "from",
          "type": "address"
        },
        {
          "internalType": "address",
          "name": "to",
          "type": "address"
        },
        {
          "internalType": "uint256",
          "name": "value",
          "type": "uint256"
        }
      ],
      "name": "transferFrom",
      "outputs": [
        {
          "internalType": "bool",
          "name": "",
          "type": "bool"
        }
      ],
      "payable": false,
      "stateMutability": "nonpayable",
      "type": "function"
    },
    {
      "constant": false,
      "inputs": [
        {
          "internalType": "address",
          "name": "newOwner",
          "type": "address"
        }
      ],
      "name": "transferOwnership",
      "outputs": [],
      "payable": false,
      "stateMutability": "nonpayable",
      "type": "function"
    },
    {
      "constant": false,
      "inputs": [
        {
          "internalType": "string",
          "name": "_ID",
          "type": "string"
        },
        {
          "internalType": "address",
          "name": "_coadres",
          "type": "address"
        },
        {
          "internalType": "uint256",
          "name": "_initpoints",
          "type": "uint256"
        }
      ],
      "name": "regCompany",
      "outputs": [],
      "payable": false,
      "stateMutability": "nonpayable",
      "type": "function"
    },
    {
      "constant": false,
      "inputs": [
        {
          "internalType": "string",
          "name": "_ID",
          "type": "string"
        },
        {
          "internalType": "string",
          "name": "_email",
          "type": "string"
        },
        {
          "internalType": "address",
          "name": "_memadres",
          "type": "address"
        }
      ],
      "name": "regMember",
      "outputs": [],
      "payable": false,
      "stateMutability": "nonpayable",
      "type": "function"
    },
    {
      "constant": false,
      "inputs": [
        {
          "internalType": "address",
          "name": "_coadres",
          "type": "address"
        }
      ],
      "name": "joinCompany",
      "outputs": [],
      "payable": false,
      "stateMutability": "nonpayable",
      "type": "function"
    },
    {
      "constant": false,
      "inputs": [
        {
          "internalType": "address",
          "name": "_coadres",
          "type": "address"
        },
        {
          "internalType": "uint256",
          "name": "_points",
          "type": "uint256"
        }
      ],
      "name": "Redeem",
      "outputs": [],
      "payable": false,
      "stateMutability": "nonpayable",
      "type": "function"
    },
    {
      "constant": false,
      "inputs": [
        {
          "internalType": "address",
          "name": "_memadres",
          "type": "address"
        },
        {
          "internalType": "uint256",
          "name": "_points",
          "type": "uint256"
        }
      ],
      "name": "Reward",
      "outputs": [],
      "payable": false,
      "stateMutability": "nonpayable",
      "type": "function"
    },
    {
      "constant": false,
      "inputs": [
        {
          "internalType": "address",
          "name": "_memadres",
          "type": "address"
        },
        {
          "internalType": "uint256",
          "name": "_points",
          "type": "uint256"
        }
      ],
      "name": "memberTrans",
      "outputs": [],
      "payable": false,
      "stateMutability": "nonpayable",
      "type": "function"
    }
  ],
  "bytecode": "0x60c060405260086080819052672a22a9aa1018181960c11b60a09081526200002b916006919062000205565b506040805180820190915260048082526329a9ab1960e11b6020909201918252620000599160079162000205565b5060088054601260ff19909116179081905560ff16600a90810a620f424002600955600090553480156200008c57600080fd5b50600580546001600160a01b03191633908117909155600954620000ba91906001600160e01b03620000fd16565b620000ce336001600160e01b03620001b616565b600a54620000e5906001600160e01b03620001ec16565b600b80546001600160a01b03191633179055620002aa565b6001600160a01b0382166200011157600080fd5b6200012d81600454620001f160201b620019951790919060201c565b6004556001600160a01b038216600090815260208181526040909120546200016091839062001995620001f1821b17901c565b6001600160a01b0383166000818152602081815260408083209490945583518581529351929391927fddf252ad1be2c89b69c2b068fc378daa952ba7f163c4a11628f55a4df523b3ef9281900390910190a35050565b6001600160a01b038116620001ca57600080fd5b600280546001600160a01b0319166001600160a01b0392909216919091179055565b600155565b81810182811015620001ff57fe5b92915050565b828054600181600116156101000203166002900490600052602060002090601f016020900481019282601f106200024857805160ff191683800117855562000278565b8280016001018555821562000278579182015b82811115620002785782518255916020019190600101906200025b565b50620002869291506200028a565b5090565b620002a791905b8082111562000286576000815560010162000291565b90565b611c5580620002ba6000396000f3fe608060405234801561001057600080fd5b50600436106101585760003560e01c8063423e5b6f116100c3578063a9059cbb1161007c578063a9059cbb14610582578063dcd75df8146105ae578063dd62ed3e14610662578063e5e6f5f414610690578063f2fde38b14610739578063fd0f01661461075f57610158565b8063423e5b6f146103c25780634d968d20146104fa578063619caafa1461052057806370a082311461054c5780638da5cb5b1461057257806395d89b411461057a57610158565b8063222838db11610115578063222838db146102ef57806323b872dd1461031d57806324ec759014610353578063261227021461035b578063313ce5671461038757806331ac9920146103a557610158565b806302d5ab451461015d57806306fdde03146101d7578063095ea7b314610254578063127e8e4d1461029457806318160ddd146102c35780631d143848146102cb575b600080fd5b61017a6004803603602081101561017357600080fd5b503561086e565b6040518085815260200184600281111561019057fe5b60ff168152602001836001600160a01b03166001600160a01b03168152602001826001600160a01b03166001600160a01b0316815260200194505050505060405180910390f35b6101df6108b5565b6040805160208082528351818301528351919283929083019185019080838360005b83811015610219578181015183820152602001610201565b50505050905090810190601f1680156102465780820380516001836020036101000a031916815260200191505b509250505060405180910390f35b6102806004803603604081101561026a57600080fd5b506001600160a01b03813516906020013561094c565b604080519115158252519081900360200190f35b6102b1600480360360208110156102aa57600080fd5b5035610a84565b60408051918252519081900360200190f35b6102b1610aaa565b6102d3610ab0565b604080516001600160a01b039092168252519081900360200190f35b61031b6004803603604081101561030557600080fd5b506001600160a01b038135169060200135610abf565b005b6102806004803603606081101561033357600080fd5b506001600160a01b03813581169160208101359091169060400135610c5e565b6102b1610e74565b61031b6004803603604081101561037157600080fd5b506001600160a01b038135169060200135610e7a565b61038f610fb0565b6040805160ff9092168252519081900360200190f35b61031b600480360360208110156103bb57600080fd5b5035610fb9565b61031b600480360360608110156103d857600080fd5b8101906020810181356401000000008111156103f357600080fd5b82018360208201111561040557600080fd5b8035906020019184600183028401116401000000008311171561042757600080fd5b91908080601f016020809104026020016040519081016040528093929190818152602001838380828437600092019190915250929594936020810193503591505064010000000081111561047a57600080fd5b82018360208201111561048c57600080fd5b803590602001918460018302840111640100000000831117156104ae57600080fd5b91908080601f016020809104026020016040519081016040528093929190818152602001838380828437600092019190915250929550505090356001600160a01b03169150610fea9050565b61031b6004803603602081101561051057600080fd5b50356001600160a01b03166110dd565b61031b6004803603604081101561053657600080fd5b506001600160a01b0381351690602001356111d0565b6102b16004803603602081101561056257600080fd5b50356001600160a01b031661136b565b6102d3611386565b6101df611395565b6102806004803603604081101561059857600080fd5b506001600160a01b0381351690602001356113f6565b61031b600480360360608110156105c457600080fd5b8101906020810181356401000000008111156105df57600080fd5b8201836020820111156105f157600080fd5b8035906020019184600183028401116401000000008311171561061357600080fd5b91908080601f016020809104026020016040519081016040528093929190818152602001838380828437600092019190915250929550506001600160a01b0383351693505050602001356114b4565b6102b16004803603604081101561067857600080fd5b506001600160a01b0381358116916020013516611595565b6106b6600480360360208110156106a657600080fd5b50356001600160a01b03166115c0565b604051808060200183151515158152602001828103825284818151815260200191508051906020019080838360005b838110156106fd5781810151838201526020016106e5565b50505050905090810190601f16801561072a5780820380516001836020036101000a031916815260200191505b50935050505060405180910390f35b61031b6004803603602081101561074f57600080fd5b50356001600160a01b031661166a565b6107856004803603602081101561077557600080fd5b50356001600160a01b03166116f0565b60405180806020018060200184151515158152602001838103835286818151815260200191508051906020019080838360005b838110156107d05781810151838201526020016107b8565b50505050905090810190601f1680156107fd5780820380516001836020036101000a031916815260200191505b50838103825285518152855160209182019187019080838360005b83811015610830578181015183820152602001610818565b50505050905090810190601f16801561085d5780820380516001836020036101000a031916815260200191505b509550505050505060405180910390f35b600e818154811061087b57fe5b600091825260209091206003909102018054600182015460029092015490925060ff8216916001600160a01b036101009091048116911684565b60068054604080516020601f60026000196101006001881615020190951694909404938401819004810282018101909252828152606093909290918301828280156109415780601f1061091657610100808354040283529160200191610941565b820191906000526020600020905b81548152906001019060200180831161092457829003601f168201915b505050505090505b90565b60006001600160a01b0383166109a1576040805162461bcd60e51b815260206004820152601560248201527439b832b73232b91030b2323932b9b99032b93937b960591b604482015290519081900360640190fd5b6001543360009081526020819052604090205410156109fe576040805162461bcd60e51b815260206004820152601460248201527339b2b73232b9103130b630b731b29032b93937b960611b604482015290519081900360640190fd5b3360008181526003602090815260408083206001600160a01b0388811685529252909120849055600254600154610a3a93929190911690611838565b6040805183815290516001600160a01b0385169133917f8c5be1e5ebec7d5bd14f71427d1e84f3dd0314c0f7b2291e5b200ac8c7c3b9259181900360200190a35060015b92915050565b600154600090610a7e90610a9e848463ffffffff61197016565b9063ffffffff61199516565b60045490565b6002546001600160a01b031690565b336000908152600c602052604090206002015460ff16610b26576040805162461bcd60e51b815260206004820152601f60248201527f53656e646572206e6f742072656769737465726564206173204d656d62657200604482015290519081900360640190fd5b6001600160a01b0382166000908152600d602052604090206001015460ff16610b805760405162461bcd60e51b8152600401808060200182810382526023815260200180611bda6023913960400191505060405180910390fd5b6001600160a01b0382166000908152600d6020908152604080832033845260020190915290205460ff16610be55760405162461bcd60e51b8152600401808060200182810382526027815260200180611b256027913960400191505060405180910390fd5b80610bef3361136b565b1015610c42576040805162461bcd60e51b815260206004820152601a60248201527f4e6f7420656e6f75676820706f696e7420746f2072656465656d000000000000604482015290519081900360640190fd5b610c4d338383611838565b610c5a33836001846119a2565b5050565b600080610c766001548461199590919063ffffffff16565b90506001600160a01b038416610cd3576040805162461bcd60e51b815260206004820152601d60248201527f7472616e7366657266726f6d206572726f72206164647265737320746f000000604482015290519081900360640190fd5b80831115610d28576040805162461bcd60e51b815260206004820152601860248201527f7472616e7366657266726f6d206572726f722076616c75650000000000000000604482015290519081900360640190fd5b6001600160a01b0385166000908152600360209081526040808320338452909152902054811115610da0576040805162461bcd60e51b815260206004820152601c60248201527f7472616e7366657266726f6d206572726f7220616c6c6f77616e636500000000604482015290519081900360640190fd5b6001600160a01b0385166000908152600360209081526040808320338452909152902054610dd4908263ffffffff611a7516565b6001600160a01b0386166000908152600360209081526040808320338452909152902055610e03858585611838565b600254600154610e209187916001600160a01b0390911690611838565b60025460015460408051918252516001600160a01b039283169287169133917ffcf5b3276434181e3c48bd3fe569b8939808f11e845d4b963693b9d7dbd6dd999181900360200190a4506001949350505050565b60015490565b6001600160a01b0382166000908152600c602052604090206002015460ff16610ed45760405162461bcd60e51b8152600401808060200182810382526021815260200180611b4c6021913960400191505060405180910390fd5b336000908152600c602052604090206002015460ff16610f3b576040805162461bcd60e51b815260206004820152601f60248201527f53656e646572206e6f742072656769737465726564206173204d656d62657200604482015290519081900360640190fd5b80610f453361136b565b1015610f98576040805162461bcd60e51b815260206004820152601c60248201527f4e6f7420656e6f75676820706f696e7420746f207472616e7366657200000000604482015290519081900360640190fd5b610fa3338383611838565b610c5a33836002846119a2565b60085460ff1690565b610fc1610ab0565b6001600160a01b0316336001600160a01b031614610fde57600080fd5b610fe781611a87565b50565b600b546001600160a01b0316331461100157600080fd5b6001600160a01b0381166000908152600c602052604090206002015460ff161561105c5760405162461bcd60e51b8152600401808060200182810382526024815260200180611bfd6024913960400191505060405180910390fd5b6040805160608101825284815260208082018590526001828401526001600160a01b0384166000908152600c82529290922081518051929391926110a39284920190611a8c565b5060208281015180516110bc9260018501920190611a8c565b50604091909101516002909101805460ff1916911515919091179055505050565b336000908152600c602052604090206002015460ff16611144576040805162461bcd60e51b815260206004820152601f60248201527f53656e646572206e6f742072656769737465726564206173204d656d62657200604482015290519081900360640190fd5b6001600160a01b0381166000908152600d602052604090206001015460ff1661119e5760405162461bcd60e51b8152600401808060200182810382526023815260200180611bda6023913960400191505060405180910390fd5b6001600160a01b03166000908152600d602090815260408083203384526002019091529020805460ff19166001179055565b336000908152600d602052604090206001015460ff16611237576040805162461bcd60e51b815260206004820181905260248201527f53656e646572206e6f74207265676973746572656420617320436f6d70616e79604482015290519081900360640190fd5b6001600160a01b0382166000908152600c602052604090206002015460ff166112915760405162461bcd60e51b8152600401808060200182810382526022815260200180611b926022913960400191505060405180910390fd5b336000908152600d602090815260408083206001600160a01b038616845260020190915290205460ff166112f65760405162461bcd60e51b8152600401808060200182810382526026815260200180611bb46026913960400191505060405180910390fd5b806113003361136b565b1015611353576040805162461bcd60e51b815260206004820152601a60248201527f4e6f7420656e6f75676820706f696e7420746f20726577617264000000000000604482015290519081900360640190fd5b61135e338383611838565b610c5a33836000846119a2565b6001600160a01b031660009081526020819052604090205490565b6005546001600160a01b031681565b60078054604080516020601f60026000196101006001881615020190951694909404938401819004810282018101909252828152606093909290918301828280156109415780601f1061091657610100808354040283529160200191610941565b60008061140e6001548461199590919063ffffffff16565b90506001600160a01b03841661142357600080fd5b8083111561143057600080fd5b61143b338585611838565b600154156114aa576002546001546114609133916001600160a01b0390911690611838565b60025460015460408051918252516001600160a01b039283169287169133917ffcf5b3276434181e3c48bd3fe569b8939808f11e845d4b963693b9d7dbd6dd999181900360200190a45b5060019392505050565b600b546001600160a01b031633146114cb57600080fd5b6001600160a01b0382166000908152600d602052604090206001015460ff16156115265760405162461bcd60e51b8152600401808060200182810382526025815260200180611b6d6025913960400191505060405180910390fd5b60408051808201825284815260016020808301919091526001600160a01b0385166000908152600d82529290922081518051929391926115699284920190611a8c565b50602091909101516001909101805460ff191691151591909117905561158f82826113f6565b50505050565b6001600160a01b03918216600090815260036020908152604080832093909416825291909152205490565b600d6020908152600091825260409182902080548351601f600260001961010060018616150201909316929092049182018490048402810184019094528084529092918391908301828280156116575780601f1061162c57610100808354040283529160200191611657565b820191906000526020600020905b81548152906001019060200180831161163a57829003601f168201915b5050506001909301549192505060ff1682565b6005546001600160a01b0316331461168157600080fd5b6001600160a01b03811661169457600080fd5b6005546040516001600160a01b038084169216907f8be0079c531659141344cd1fd0a4f28419497f9722a3daafe3b4186f6b6457e090600090a3600580546001600160a01b0319166001600160a01b0392909216919091179055565b600c6020908152600091825260409182902080548351601f600260001961010060018616150201909316929092049182018490048402810184019094528084529092918391908301828280156117875780601f1061175c57610100808354040283529160200191611787565b820191906000526020600020905b81548152906001019060200180831161176a57829003601f168201915b505050505090806001018054600181600116156101000203166002900480601f0160208091040260200160405190810160405280929190818152602001828054600181600116156101000203166002900480156118255780601f106117fa57610100808354040283529160200191611825565b820191906000526020600020905b81548152906001019060200180831161180857829003601f168201915b5050506002909301549192505060ff1683565b6001600160a01b0383166000908152602081905260409020548111156118a5576040805162461bcd60e51b815260206004820152601760248201527f5f7472616e736665722062616c616e6365206572726f72000000000000000000604482015290519081900360640190fd5b6001600160a01b0382166118b857600080fd5b6001600160a01b0383166000908152602081905260409020546118e1908263ffffffff611a7516565b6001600160a01b038085166000908152602081905260408082209390935590841681522054611916908263ffffffff61199516565b6001600160a01b038084166000818152602081815260409182902094909455805185815290519193928716927fddf252ad1be2c89b69c2b068fc378daa952ba7f163c4a11628f55a4df523b3ef92918290030190a3505050565b60008261197f57506000610a7e565b508181028183828161198d57fe5b0414610a7e57fe5b81810182811015610a7e57fe5b600e60405180608001604052808381526020018460028111156119c157fe5b81526001600160a01b0380881660208084019190915290871660409092019190915282546001818101808655600095865294839020845160039093020191825591830151818301805492939192909160ff1990911690836002811115611a2357fe5b02179055506040820151600182018054610100600160a81b0319166101006001600160a01b0393841602179055606090920151600290910180546001600160a01b031916919092161790555050505050565b600082821115611a8157fe5b50900390565b600155565b828054600181600116156101000203166002900490600052602060002090601f016020900481019282601f10611acd57805160ff1916838001178555611afa565b82800160010185558215611afa579182015b82811115611afa578251825591602001919060010190611adf565b50611b06929150611b0a565b5090565b61094991905b80821115611b065760008155600101611b1056fe54686973206d656d62657220686173206e6f74206a6f696e656420796f757220436f6d70616e795265636569766572206e6f742072656769737465726564206173204d656d6265724163636f756e7420616c7265616479207265676973746572656420617320436f6d70616e7954686973206973206e6f7420612076616c6964206d656d626572206163636f756e7454686973206d656d62657220686173206e6f74206a6f696e65642074686520436f6d70616e7954686973206973206e6f7420612076616c696420436f6d70616e79206163636f756e744163636f756e7420616c72656164792072656769737465726564206173204d656d626572a265627a7a7231582084d397c706c2ba2382b17b578e7fa1fe3fc5571d8b381a05f2ff5036f5e25b6864736f6c63430005100032",
  "source": "pragma solidity ^0.5.1;\r\n\r\n\r\nimport \"./TRC21.sol\";\r\n /**\r\n * SS Engagement Point Smart Contract \r\n */\r\n\r\ncontract Soft2Point is S2TRC21 {\r\n\r\n\taddress private admin;\r\n    //SSRWToken public rewardpoint; //crypto token  \r\n\r\n\tstruct Member {\r\n        string ID;\r\n        string email;\r\n        bool IsRegister;\r\n\t}\r\n\r\n\tstruct Company {\r\n        string ID;\r\n        bool IsRegister;\r\n        mapping(address => bool) memberlink;//member link\r\n\t}\r\n\r\n\t///each address is mapped to a specific member or Company\r\n\tmapping(address => Member) public Members;\r\n\tmapping(address => Company) public Companies;\r\n\r\n    enum TransType { Rewarded, Redeemed, Memtrans }\r\n    struct PointsTrans {\r\n        uint points;\r\n        TransType transType;\r\n        address sender;\r\n        address receiver;\r\n    }\r\n\r\n    PointsTrans[] public transInfo;\r\n\r\n    constructor() public {\r\n\t\tadmin = msg.sender;\r\n\t}\r\n\r\n    \r\n    /**\r\n     * @dev Registers a new Company, only admin or contract owner can call \r\n     * @param _ID  name of Company\r\n     * @param _coadres Address Company\r\n     * @param _initpoints intial point gave to the this company\r\n     * \r\n     */\r\n\r\n\tfunction regCompany(string memory _ID, address _coadres, uint256 _initpoints) public {\r\n\t\trequire(msg.sender == admin);\r\n\t\trequire(!Companies[_coadres].IsRegister, \"Account already registered as Company\");\r\n\t\tCompanies[_coadres] = Company(_ID , true); \r\n        transfer(_coadres, _initpoints);\r\n        \r\n\r\n\t}\r\n\r\n\t    /**\r\n     * @dev Registers a new member\r\n     * @param _ID first name of member\r\n     * @param _email email of member\r\n     * @param _memadres address of member\r\n\r\n     */\r\n  \r\n\tfunction regMember(string memory _ID, string memory _email, address _memadres) public {\r\n\t\trequire(msg.sender == admin);\r\n\t\trequire(!Members[_memadres].IsRegister, \"Account already registered as Member\");\r\n\t\tMembers[_memadres] = Member(_ID, _email, true);\r\n\t}\r\n\r\n\t/**\r\n     * @dev member joins the company \r\n     * @param _coadres address of Company \r\n\r\n     */\r\n\r\n\tfunction joinCompany(address _coadres) public{\r\n\t\trequire(Members[msg.sender].IsRegister, \"Sender not registered as Member\"); // only regist member can call this\r\n\t\trequire(Companies[_coadres].IsRegister, \"This is not a valid Company account\");\r\n\t\tCompanies[_coadres].memberlink[msg.sender] = true; // link \r\n\t}\r\n\r\n\t/**\r\n     * @dev Redeem points. Points are transfered from the member to the Company. This function can only be invoked by a member\r\n     * Emits an transfer event.\r\n     * @param _coadres Address of company to be redeemed\r\n     * @param _points Points to be transfered\r\n     */\r\n\r\n\r\n\tfunction Redeem(address _coadres, uint256 _points) public {\r\n\t\trequire(Members[msg.sender].IsRegister, \"Sender not registered as Member\");\r\n\t\trequire(Companies[_coadres].IsRegister, \"This is not a valid Company account\");\r\n        require(Companies[_coadres].memberlink[msg.sender], \"This member has not joined your Company\" );\r\n        require(balanceOf(msg.sender) >= _points,\"Not enough point to redeem\");\r\n        _transfer(msg.sender, _coadres, _points);\r\n        // add transction\r\n        pushTrans (msg.sender, _coadres,TransType.Redeemed, _points);\r\n\t}\r\n\r\n\r\n    /**\r\n     * @dev earn points to a members. This function can only be invoked by a company\r\n     * Emits an transfer event.    \r\n     * @param _memadres Address of member\r\n     * @param _points Points to be transfered\r\n     */\r\n\r\n\tfunction Reward(address _memadres, uint256 _points) public{\r\n\t\trequire(Companies[msg.sender].IsRegister, \"Sender not registered as Company\");\r\n\t\trequire(Members[_memadres].IsRegister, \"This is not a valid member account\");\r\n\t\trequire(Companies[msg.sender].memberlink[_memadres], \"This member has not joined the Company\" );\r\n        require(balanceOf(msg.sender) >= _points,\"Not enough point to reward\");\r\n        _transfer(msg.sender, _memadres, _points);\r\n        // add transction\r\n        pushTrans (msg.sender, _memadres,TransType.Rewarded, _points);\r\n\t}\r\n\r\n    /**\r\n     * @dev transfer between a members. This function can only be invoked by a member\r\n     * Emits an transfer event.    \r\n     * @param _memadres Address of member\r\n     * @param _points Points to be transfered\r\n     */\r\n\r\n\tfunction memberTrans(address _memadres, uint256 _points) public{\r\n\t\trequire(Members[_memadres].IsRegister, \"Receiver not registered as Member\");\r\n        require(Members[msg.sender].IsRegister, \"Sender not registered as Member\");\r\n        require(balanceOf(msg.sender) >= _points,\"Not enough point to transfer\");\r\n\t\t_transfer(msg.sender, _memadres, _points);\r\n        // add transction\r\n        pushTrans (msg.sender, _memadres,TransType.Memtrans, _points);      \r\n\t}\r\n\r\n    /**\r\n     * @dev push transaction info. \r\n     * @param _sendadres Address of sender\r\n     * @param _receivadres Address of receiver\r\n     * @param _trans trasction type Rewarded,Redeemed or Memtrans\r\n     * @param _points Points to be transfered\r\n     */    \r\n    function pushTrans (address _sendadres, address _receivadres,TransType _trans,uint256 _points) internal {\r\n        transInfo.push(PointsTrans({\r\n        points: _points,\r\n        transType: _trans,\r\n        sender: _sendadres,\r\n        receiver: _receivadres\r\n        }));\r\n    }\r\n}",
  "sourcePath": "E:/workspace/sodility-prj/sstoken/contracts/Soft2Point.sol",
  "compiler": {
    "name": "solc",
    "version": "0.5.16+commit.9c3226ce.Emscripten.clang"
  },
  "schemaVersion": "3.3.4",
  "updatedAt": "2021-02-24T06:52:38.039Z",
  "networkType": "ethereum",
  "devdoc": {
    "methods": {
      "Redeem(address,uint256)": {
        "details": "Redeem points. Points are transfered from the member to the Company. This function can only be invoked by a member Emits an transfer event.",
        "params": {
          "_coadres": "Address of company to be redeemed",
          "_points": "Points to be transfered"
        }
      },
      "Reward(address,uint256)": {
        "details": "earn points to a members. This function can only be invoked by a company Emits an transfer event.    ",
        "params": {
          "_memadres": "Address of member",
          "_points": "Points to be transfered"
        }
      },
      "allowance(address,address)": {
        "details": "Function to check the amount of tokens that an owner allowed to a spender.",
        "params": {
          "owner": "address The address which owns the funds.",
          "spender": "address The address which will spend the funds."
        },
        "return": "A uint256 specifying the amount of tokens still available for the spender."
      },
      "approve(address,uint256)": {
        "details": "Approve the passed address to spend the specified amount of tokens on behalf of msg.sender. Beware that changing an allowance with this method brings the risk that someone may use both the old and the new allowance by unfortunate transaction ordering. One possible solution to mitigate this race condition is to first reduce the spender's allowance to 0 and set the desired value afterwards: https://github.com/ethereum/EIPs/issues/20#issuecomment-263524729",
        "params": {
          "spender": "The address which will spend the funds.",
          "value": "The amount of tokens to be spent."
        }
      },
      "balanceOf(address)": {
        "details": "Gets the balance of the specified address.",
        "params": {
          "owner": "The address to query the balance of."
        },
        "return": "An uint256 representing the amount owned by the passed address."
      },
      "decimals()": {
        "return": "the number of decimals of the token."
      },
      "estimateFee(uint256)": {
        "details": "Estimate transaction fee.",
        "params": {
          "value": "amount tokens sent"
        }
      },
      "issuer()": {
        "details": "token's foundation"
      },
      "joinCompany(address)": {
        "details": "member joins the company ",
        "params": {
          "_coadres": "address of Company "
        }
      },
      "memberTrans(address,uint256)": {
        "details": "transfer between a members. This function can only be invoked by a member Emits an transfer event.    ",
        "params": {
          "_memadres": "Address of member",
          "_points": "Points to be transfered"
        }
      },
      "minFee()": {
        "details": "The amount fee that will be lost when transferring."
      },
      "name()": {
        "return": "the name of the token."
      },
      "regCompany(string,address,uint256)": {
        "details": "Registers a new Company, only admin or contract owner can call ",
        "params": {
          "_ID": "name of Company",
          "_coadres": "Address Company",
          "_initpoints": "intial point gave to the this company \r"
        }
      },
      "regMember(string,string,address)": {
        "details": "Registers a new member",
        "params": {
          "_ID": "first name of member",
          "_email": "email of member",
          "_memadres": "address of member"
        }
      },
      "symbol()": {
        "return": "the symbol of the token."
      },
      "totalSupply()": {
        "details": "Total number of tokens in existence"
      },
      "transfer(address,uint256)": {
        "details": "Transfer token for a specified address",
        "params": {
          "to": "The address to transfer to.",
          "value": "The amount to be transferred."
        }
      },
      "transferFrom(address,address,uint256)": {
        "details": "Transfer tokens from one address to another",
        "params": {
          "from": "address The address which you want to send tokens from",
          "to": "address The address which you want to transfer to",
          "value": "uint256 the amount of tokens to be transferred"
        }
      },
      "transferOwnership(address)": {
        "details": "Allows the current owner to transfer control of the contract to a newOwner.",
        "params": {
          "newOwner": "The address to transfer ownership to."
        }
      }
    }
  },
  "userdoc": {
    "methods": {},
    "notice": "SS Engagement Point Smart Contract "
  }
}